:020000040800F2
:100000002822002081020008595A000839520008AD
:10001000555A000899150008A9650008000000005D
:10002000000000000000000000000000315C00083B
:100030009D15000800000000615A00085560000886
:100040009B0200089B0200089B0200089B0200081C
:100050009B0200089B020008A11500089B020008F3
:100060009B0200089B0200089B0200089B020008FC
:100070009B0200089B0200089B0200089B020008EC
:100080009B0200089B0200089B0200089B020008DC
:100090009B0200089B0200089B0200089B020008CC
:1000A0009B020008896000089B0200089B02000870
:1000B0009560000800000000000000009B0200089E
:1000C0009B02000800000000000000009B020008E6
:1000D000000000009B0200089D6500080000000071
:1000E0009B0200089B0200080000000000000000C6
:1000F0000000000000000000000000000000000000
:100100000000000000000000000000009B0200084A
:1001100000000000000000009B0200089B02000895
:100120009B0200089B0200089B0200089B0200083B
:100130009B0200080000000000000000000000001A
:100140009B0200089B0200089B0200089B0200081B
:100150009B0200089B0200089B0200089B0200080B
:100160009B0200089B0200089B02000800000000A0
:100170009B0200089B020008000000000000000035
:100180009B0200089B0200089B02000800F002F896
:1001900000F066F814A696E8000CB244B344DA45C1
:1001A00001D100F05DF8BAE80F000FA696E8300024
:1001B000A5EB040504EB0607AAEB0704A7F101076A
:1001C0004FEA15154FEA3414A4F10104AC4201D3EF
:1001D00000F046F813F0010F18BFFB1A43F00103BB
:1001E00000F001F8DBE71847608900008089000013
:1001F000103A24BF78C878C1FAD8520724BF30C853
:1002000030C144BF04680C607047000070470000B4
:100210000023002400250026103A28BF78C1FBD80F
:10022000520728BF30C148BF0B607047642900F0F7
:100230002F81782900F06881732900F02384002041
:1002400070471FB508F0A4FB00F098FE04000020E2
:10025000002108F087FB401C60601FBD10B510BD79
:1002600000F051FE1146FFF7ECFF06F09FF900F099
:1002700077FE03B4FFF7F2FF03BC00F083FE00003B
:100280000948804709480047FEE7FEE7FEE7FEE72A
:10029000FEE7FEE7FEE7FEE7FEE7FEE70448054966
:1002A000054A064B70470000756000088D01000884
:1002B000281C002028220020281E0020281E0020A4
:1002C00053EA020C00F069802DE9F04B4FF0000674
:1002D000002B1FBFB3FA83F503FA05F424FA05F6E1
:1002E0005E4012BF1643B2FA82F502FA05F4C5F178
:1002F00020051EBF22FA05FC44EA0C04203556EA0C
:10030000044C4FEA144418BF641C4FF000084FF02F
:100310000009904271EB030C39D3002919BFB1FADF
:1003200081F701FA07F6B0FA80F700FA07F6C7F18D
:1003300020071EBF20FA07FC46EA0C062037B6FB52
:10034000F4FCA7EB0507103F07F01F0BCBF12006CD
:100350002CFA06F60CFA0BFB44BFB3460026202FFE
:10036000A4BF5E464FF0000B5BEA060C08BF4FF0DF
:10037000010B19EB0B0948EB0608ABFB027C06FBF3
:1003800002CC0BFB03CCC01B71EB0C01C1E70B468D
:10039000024641464846BDE8F08B13B5084318BFF6
:1003A0004FF0FF300146AFF30080BDE81C407047BE
:1003B0000FB41CB50C0007AA009007D04142A1421F
:1003C00002D32044401E01E04FF0FF30074B7B4436
:1003D00069460190069800F028FB0021002C01D00E
:1003E000009A11701CBC5DF814FB00007F06000031
:1003F00070B5044685690068C10601D5302600E065
:100400002026C00707D070BDD4E9012130469047AF
:10041000206A401C20626D1EF6D570BD70B5044682
:1004200085690078C00707D170BDD4E9012120207B
:100430009047206A401C20626D1EF6D570BD70B5D5
:100440000C460546012A05D02878800600D5EA69C1
:10045000002302E0012305E05B1C934202D2E05C32
:100460000028F9D1A869E618C01AA861286A1844BA
:1004700028622846FFF7BCFF04E0D5E9012114F803
:10048000010B9047B442F8D32846FFF7C7FF70BD71
:100490002DE9F0410646002410687529314616A55D
:1004A00010D0AFF30080002802DA404213A507E025
:1004B00031688A0701D512A502E0490704D511A5C4
:1004C000012401E0AFF3008000210A2206F1240795
:1004D00009E0B0FBF2FCB0FBF2F302FB1C00303091
:1004E00078541846491C0028F3D123462A46304642
:1004F000BDE8F04100F03BBA000000002D00000014
:100500002B0000002000000070B504460D46214677
:100510001068AFF300802188090502D50F4A7A449C
:1005200002E00E4A7A440E32002104F1240305E071
:1005300000F00F060009965D5E54491C0028F7D1B3
:1005400020780023000704D5702D02D009B10223C2
:1005500011322046BDE8704000F009BA88840000DE
:100560002DE9F05F894604464FF0000ADFF824B118
:10057000FB44C0F820A02046E168884700287DD0D1
:10058000252806D0D4E901219047206A401C20622A
:10059000F1E700255F462046E168884720280646A7
:1005A00007DB312E05D2B81910F8200C08B105432D
:1005B000F1E7A80701D525F00405C4F81CA0002721
:1005C000C4F818A02A2E09D0304608F0C3F938B371
:1005D00004EB8708303EC8F8186019E059F8041B8E
:1005E000204604EB87029161E1688847012F0646A7
:1005F00018D1E069002820DA25F020051DE0D8F8A0
:10060000180000EB800006EB40003038C8F81800F6
:100610002046E1688847064608F09CF90028EED19C
:10062000012F0AD02E2E08D12046E16888477F1C72
:100630000646022F45F02005C4DBA069002803DA36
:10064000404245F00105A061E80701D025F0100502
:10065000A6B1A6F14100192802D8203645F400655C
:100660004A463146204625604D46FFF7DFFD60B122
:10067000012807D0ED1D25F0070000E007E000F19C
:10068000080978E705F1040975E730467AE7206A3A
:1006900000F002B85E84000030BCBDE8C09F0000DE
:1006A0000FB400B58DB010A9099000910B904FF0D8
:1006B000FF300A9000200C900648784406900648C7
:1006C00078446A4607900F9909A800F0F3F90DB035
:1006D0005DF814FB170400002F0400002DE9FF5FF4
:1006E0001D464FF0FF3B91464FF000085F46D5E9AD
:1006F0000146A96901987F1C8847296A8246884774
:100700000028F6D1BAF1FF3F0CD0002E24F4C064CB
:1007100019DD600614D5BAF12B0F09D0BAF12D0FEF
:100720000ED103E0584604B000F07EB844F4806473
:10073000A96901987F1C8847761E8246002E02DD3B
:10074000BAF1300F03D0B9F1000F26D032E0A96919
:10075000761E01987F1C44F400748847002E824660
:1007600005DDBAF1780F06D0BAF1580F03D0B9F110
:10077000000F10D01EE0B9F1000F02D0B9F1100F38
:1007800018D1A969761E01987F1C24F4007488474B
:100790008246102002E0082000E00A20814609E09D
:1007A000A96908FB0908761E01987F1C44F40074AF
:1007B00088478246002E05DD4946504600F066F91E
:1007C0000028EDDAE96901988847A00502D46FF0A6
:1007D0000100A8E7E00725D1600613D5600502D522
:1007E000C8F1000000E0404629680A1D2A60096837
:1007F000220501D5087015E0220701D5088011E017
:1008000008600FE02868011D29600068210502D5F5
:1008100080F8008006E0210702D5A0F8008001E002
:10082000C0F8008038467EE730BCBDE8C09F401E5F
:10083000CAB210F8011F8A4202D00029F9D1002063
:10084000704710B5431C02E010F8011B71B181071D
:10085000FAD14FF0013202C88C1A8C4314EAC2114B
:10086000F9D0C01A0A0603D0C01E10BDC01A10BDB0
:100870000A0401D0801E10BD0902FCD0401E10BD2C
:10088000032A40F2308010F0030C00F0158011F8BC
:10089000013BBCF1020F624498BF11F801CB00F894
:1008A000013B38BF11F8013BA2F1040298BF00F8E8
:1008B00001CB38BF00F8013B11F0030300F02A819F
:1008C000083AC0F0088051F8043B083A51F804CBCC
:1008D000A0E80810F5E7121D5CBF51F8043B40F892
:1008E000043BAFF30080D20724BF11F8013B11F89D
:1008F00001CB48BF11F8012B24BF00F8013B00F8E1
:1009000001CB48BF00F8012B704702F0FF0343EA18
:10091000032242EA024200F002B84FF0000200B5A2
:10092000134694469646203922BFA0E80C50A0E812
:100930000C50B1F12001BFF4F7AF090728BFA0E8C0
:100940000C5048BF0CC05DF804EB890028BF40F88C
:10095000042B08BF704748BF20F8022B11F0804FCE
:1009600018BF00F8012B70477047704770472DE99A
:10097000F0470D4699469246044600F12408016866
:10098000880604D5E06921F01001216000E0012013
:10099000A84201DD471B00E00027A1697A1902EB9C
:1009A0000900081AA0612078C00602D42046FFF78B
:1009B0001FFD002608E0D4E901211AF8060090473F
:1009C000206A401C761C20624E45F4DB2078C0066D
:1009D0000AD52046FFF70CFD06E0D4E901213020BE
:1009E0009047206A401C2062381EA7F10107F4DC02
:1009F00007E0D4E9012118F805009047206A401C5F
:100A00002062281EA5F10105F3DC2046FFF706FD54
:100A10002078000602D50220BDE8F0870120FBE720
:100A200001694A1C02610878704700B58FB0CDE9B2
:100A300001310021059105497944CDE903101146A2
:100A40006846FFF78DFD0FB000BD0000E5FFFFFF1A
:100A5000D1E900239A4202D2531C0B6010707047F8
:100A600010B5436913B1AFF3008001E0FFF7E7FC75
:100A7000012010BD127800F124010A7000224A7092
:100A80000122EDE711684FF0FF32E9E73A2800D282
:100A9000303820F02002412A01D3A2F137008842E9
:100AA00001D34FF0FF3070470268114413780160A2
:100AB00018467047D1600549794451610449794429
:100AC000116200211161114600F060B8EDFFFFFFD7
:100AD000B7000000426842B1016811F8013B23B140
:100AE000521EC0E90012184670470121C160881EDD
:100AF000704742685AB1C368016843B983688B4242
:100B000005D0491E521CC0E90012002070474FF06A
:100B1000FF30704710B5203AC0F00B80B1E8185094
:100B2000A0E81850B1E81850A0E81850203ABFF4D7
:100B3000F5AF5FEA027C24BFB1E81850A0E8185076
:100B400044BF18C918C0BDE810405FEA827C24BFCA
:100B500051F8043B40F8043B08BF7047D20728BF58
:100B600031F8023B48BF11F8012B28BF20F8023BA7
:100B700048BF00F8012B704710B5044600F0E8F9B3
:100B80000068005D00F0010010BD00002DE9F34F8A
:100B90004FF0000A0C4656468DB001200C9001F132
:100BA0000C000B9062690B9801219047051E2DD017
:100BB000252D2CD0216A8847C0B162690B9801218C
:100BC0009047216A88470028F7D16269411E0B9837
:100BD000904700E0761CA1690D988847216A8847F4
:100BE0000028F7D1E1690D988847DBE7A1690D98E6
:100BF0008847A842074601D1761CD3E7E1690D98E2
:100C000088477F1C02D1BAF1000F6FD06BE1626997
:100C10000B9800273D46394690472A2804D162693F
:100C20000B98012190470125DFF8D08262690B986B
:100C300001219047A0F130010A290AD24745E5DC9D
:100C400007EB870100EB4107303FDFD445F010058B
:100C5000ECE7E90601D46FF000476C280AD04C2875
:100C600014D0682815D06A280DD074281CD07A2892
:100C70001AD01DE062690B98012190476C2802D0C0
:100C800045F0040514E045F002050DE045F02005AF
:100C90000AE062690B9801219047682802D045F06C
:100CA000080505E045F4006562690B98012190474D
:100CB000C4E9015765283DD019DC58287AD00CDCEE
:100CC000452837D004DC252826D041289ED131E0A4
:100CD00046282FD0472899D12CE05B2877D061286F
:100CE00028D063287CD0642823D15AE0F6E06F280E
:100CF00048D008DC66281DD067281BD0692821D081
:100D00006E2816D127E0702845D0732868D0752842
:100D100047D078280DD14DE0A1690D988847252846
:100D200005463FF469AFE1690D9888476D1C3FF4B3
:100D30006AAFD8E00D9923466A466FF00100AFF321
:100D40000080C5E045F0400023464FF0000260609F
:100D5000A80736D43EE0E8077FF447AF2068011DBE
:100D600021600068290501D506701BE7290701D518
:100D7000068017E7A90703D5F117C0E9006111E75D
:100D800006600FE745F0400023464FF00802606020
:100D9000A80716D41EE040F60E0125EA01006060A7
:100DA00016E045F0400023464FF00A026060A807B5
:100DB00007D40FE045F040006060A80708D523463F
:100DC00010220D996FF00100AFF3008080E007E082
:100DD000102223460D996FF00100FFF77FFC77E0AA
:100DE0004FF0000963284F46C8464B46CB4602D019
:100DF0005B2806D038E0E80601D40120A060012776
:100E000032E06269D4F80CB00B98012190475E285B
:100E100007D14FF0010949466269D4F80CB00B982C
:100E20009047216939B900210A4603AB43F82120D4
:100E3000491C0829FADBD8B3216949B308F1010834
:100E400062690B98012190475D28F4D1B9F1000F38
:100E500009D0002003A951F82020D24341F82020D6
:100E6000401C0828F7DB03AB2069002820794FEAF3
:100E700040701ED05B462246CDF80080CDE9019738
:100E80000D9900286FF0010020DAAFF300801FE019
:100E9000C11703AA00EBD1614B1121F01F0102EB36
:100EA0008302411A13680120884003431360C7E797
:100EB00019E00D99224600286FF00100009702DA30
:100EC000AFF3008004E0AFF3008001E0AFF30080F7
:100ED00000280ADA401C06D10C9820B14FF0FF30F0
:100EE0000FB000F00DB85046FAE7E90701D10AF15A
:100EF000010A064400200C9054E60000CCCCCC0C37
:100F000030BCBDE8C08F754600F034F8AE46050031
:100F10006946534620F00700854618B020B5FFF714
:100F2000BDF9BDE820404FF000064FF000074FF03C
:100F300000084FF0000BAC46ACE8C009ACE8C009B3
:100F4000ACE8C009ACE8C00921F007018D46704744
:100F500010B500F013F8001D10BD00BF097A0000A5
:100F600010B50446AFF300802046BDE81040FFF7FF
:100F700080B900000048704710000020004870470A
:100F80003000002001491820ABBEFEE72600020019
:100F900030B44FF0013C50F8042B51F8043BCCFA2C
:100FA00052F4D51A20D1FCB950F8042B51F8043B67
:100FB000CCFA52F4D51A17D1B4B950F8042B51F821
:100FC000043BCCFA52F4D51A0ED16CB950F8042B6C
:100FD00051F8043BCCFA52F4D51A05D1002CDAD0E2
:100FE00030BC4FF00000704729BAB1FA81F111F01E
:100FF0001801D1F120008440F2D1CA40CB4012F058
:10100000FF0213F0FF0330BCD01A70477047000096
:1010100070B594B040F27005C2F20005287800283F
:1010200000F01281287802282BD3002000EB400129
:1010300029444A7B431C8A72B1F80B200A812A7822
:10104000013A93421DDA0A7C831C4A73CA89A1F8CB
:101050000B202A78013A934213DACA7CC31C0A7423
:10106000B1F81120CA812A78013A934209DA8A7DBF
:101070000430CA748A8AA1F811202978013988427B
:10108000D4DB287801382870287800287CD02B7A87
:101090006E7A0DF116046DA2204628210096FFF706
:1010A00087F92046FFF7CDFB82B240F2A030C2F2B2
:1010B000000021464FF0FF334FF0FF3603F052FDA2
:1010C0002B7A6D7A48F60E320DF10504C0F6000257
:1010D000204611210095FFF76BF9CC2040F2302516
:1010E0008DF83E00C820C2F200058DF84F000DF1CA
:1010F0003E0228464E210123009601F02FF80120E0
:1011000000F09EFD0DF14F0228464E21012300966E
:1011100001F024F8012000F093FD0C208DF83E0032
:1011200008208DF84F000DF13E0228464E21012384
:10113000009601F013F8012000F082FD0DF14F023E
:1011400028464E210123009601F008F8012000F006
:1011500077FD48F62A320DF13E05C0F6000228461A
:1011600011212346FFF724F99DF83E0000286BD09B
:101170006C1E00BFC0B2012104F01EFCA078013437
:101180000028F7D160E000BF40F2A030C2F20000BA
:1011900034A116224FF0FF334FF0FF3503F0E2FC8D
:1011A000CC2040F230248DF81600C820C2F2000492
:1011B0008DF83E000DF1160220464E2101230095C8
:1011C00000F0CCFF012000F03BFD0DF13E02204677
:1011D0004E210123009500F0C1FF012000F030FDF9
:1011E0000C208DF8160008208DF83E000DF1160237
:1011F00020464E210123009500F0B0FF012000F0B1
:101200001FFD0DF13E0220464E210123009500F006
:10121000A5FF012000F014FD48F62A320DF1160456
:10122000C0F6000215A320461121FFF7C1F89DF872
:10123000160048B1013C00BFC0B2012104F0BCFB64
:10124000A07801340028F7D114B070BD4E657874D1
:1012500020646F73653A20253032643A2530326459
:101260000D0A00004E6F206D6F726520646F73650C
:101270007320746F6461792E0D0A00004E6F206D2B
:101280006F726520646F7365730000002DE9F04F85
:101290009BB040F2A035C2F2000504469CA128464E
:1012A0000C224FF0FF3303F05DFC2046FFF7C9FA34
:1012B00082B2284621464FF0FF3303F053FC48F634
:1012C0000B31C0F60001284602224FF0FF3303F035
:1012D00049FC207853284FD1607845284CD1A0781C
:1012E000542849D140F27008C2F200080025271D99
:1012F0000FF254290DF11A0A0DF15A0608F10804EB
:101300004FF0010B88F8005007E000BF384620215D
:10131000FFF78DFA00F10107E0B33878D0B398F801
:101320000000032836D838464946524633468DF8E1
:101330001A508DF85A50FFF7B3F90228E6D19DF8FC
:101340001A0098F8001001EB410160549DF85A0012
:1013500098F8001001EB41012144487098F8000012
:1013600000EB4000204480F802B098F80000013003
:1013700088F80000CAE700BF40F2A030C2F20000C7
:1013800067A127224FF0FF331BB000F0FDB803F038
:10139000E9BB00BF98F800300DF11A046DA2204699
:1013A0004021FFF705F82046FFF74BFA82B240F2E2
:1013B000A030C2F2000021464FF0FF3303F0D2FB11
:1013C00098F8000020B340F2A03A00270FF2A019CD
:1013D0000DF11A05C2F2000A07EB47004044047AF7
:1013E000467A0137284640214A463B46CDE9004629
:1013F000FEF7DEFF2846FFF724FA82B25046294660
:101400004FF0FF3303F0AEFB98F800008742E3D3C0
:1014100098F8000070B198F8083098F8097048F60C
:101420000E32C0F6000202A811210097FEF7C0FF9D
:1014300012E000BF00208DF8140047F22030C7F200
:101440006540049047F26F30C7F26530039046F66E
:101450004E70C6F220400290CC2040F230248DF82D
:101460005A00C820C2F200048DF86B004FF0FF351F
:101470000DF15A0220464E210123009500F06EFE28
:10148000012000F0DDFB0DF16B0220464E2101230F
:10149000009500F063FE012000F0D2FB0C208DF8D7
:1014A0005A0008208DF86B000DF15A0220464E219B
:1014B0000123009500F052FE012000F0C1FB0DF168
:1014C0006B0220464E210123009500F047FE0120CB
:1014D00000F0B6FB48F62A320DF15A04C0F60002BD
:1014E00002AB20461121FEF763FF9DF85A0048B178
:1014F000013C00BFC0B2012104F05EFAA0780134C3
:101500000028F7D1002088F802001BB000F041B895
:1015100050726F63657373696E673A200000000054
:10152000556E6B6E6F776E20636F6D6D616E642E9E
:10153000205573653A205345542048483A4D4D2074
:1015400048483A4D4D0D0A00256868753A25686887
:101550007500000052656365697665642025642026
:10156000646F73652074696D65733A0D0A0000003D
:101570002020446F73652025643A20253032643A78
:10158000253032640D0A000030BCBDE8C04FFFF7C3
:10159000FEBE30BCBDE8C08FFEE700007047000013
:1015A000012000F063BB0000EFF3108072B600BFB3
:1015B000FEE70000F0B581B00022009290F85020C4
:1015C000012A03D10221084601B0F0BD01230768BA
:1015D00080F85030BB685B0700F19A804B68052BA0
:1015E00007D8023B032B9ABFC5A555F82330062325
:1015F0004B60C3F3012407EB84040D68226B03F0F6
:101600001F031F269E40B243C5F3846606FA03F308
:101610001A432263BA68BB6802F0040203F00803AD
:10162000D21840F090800A688B68C2F3406607EBDE
:1016300086067569C2F3045207249440A54303FA51
:1016400002F22A437261D1E90435FC68042B65D1AA
:101650003A6E3A6E0B68C2F3846293FAA3F6C3F350
:10166000846C6FF3DF43B6FA86F5002B2C464FF6F9
:10167000FF7E08BF6446A242C0F2070E0CD13A6E4C
:1016800022F000423A660A6802EA0E03C2F3846C52
:1016900092FAA2F2B2FA82F57A6E7A6E002BC2F357
:1016A00084622C4608BF6446A2420CD17A6E22F0B6
:1016B00000427A660A6802EA0E03C2F3846C92FA68
:1016C000A2F2B2FA82F5BA6EBA6E002BC2F384624D
:1016D0002C4608BF6446A2420CD1BA6E22F00042EA
:1016E000BA660A6802EA0E03C2F3846C92FAA2F2A6
:1016F000B2FA82F5FA6EFA6E002BC2F3846208BF6A
:101700006546AA421FD1FA6E22F00042FA661AE03C
:10171000416D41F0200141650121EAE0062202EA23
:1017200094020E6807EB830305FA02F21D6E4FF276
:101730000004C0F2FF3406F0F846254032432A4345
:1017400042F000421A66BA680D68D20750D1CA68E2
:10175000D7F8B0602B466FF3DF4326EA030C4FF651
:10176000FF7602F01804C0F20706E64000242E407F
:10177000C4F27F0446EA0C06A242C7F8B06037D133
:1017800093B195FAA5F2B2FA82F2013202F01E0389
:10179000092B02F01F0310D801229A4003EB4303E8
:1017A00042EA035315E000BF012202EB956202F00A
:1017B0001E030A2B02F01F03EED3012200269A40DB
:1017C00003EB4303CFF6206606EB03531A4342F0C4
:1017D0000073C3F3406607EB86068A687569C3F336
:1017E000045307249C40A5439A402A4372610D6824
:1017F0000021C8F208010D427AD040F2083CC5F23F
:10180000040CDCF800400021CCF252718D4204F04F
:10181000E07E08BF14F4000116D00021CCF684311C
:101820008D424DD10021B1EB1E6F49D1ACF5427113
:101830008F425DD1DCF8001021F0E07141EA0E0129
:1018400041F0807152E000BFACF542718F424FD140
:10185000DCF8001042F6635221F0E07141EA0E011B
:1018600041F40001CCF8001040F20801C2F200017E
:101870000968C0F23E528909A1FB0212910901EBED
:1018800041010C2202EB81010091009981B3009982
:1018900001390091009959B30099013900910099DB
:1018A00031B3009901390091009909B300990139C8
:1018B0000091009900294FF00001E8D119E000BF24
:1018C000ACF542718F424FF0000112D10122C8F2F3
:1018D0000002954208BF14F480020AD1DCF800101F
:1018E00021F0E07141EA0E0141F48001CCF80010D2
:1018F0000021002280F85020084601B0F0BD00BF52
:101900000C000000120000001800000000010000A0
:10191000B0B582B000210028019155D0416D39B990
:10192000044600F0E9F820460021A16584F8501033
:101930000268916889004FF6C071C5F6FF7102D543
:1019400093680B4093609368DB002ED4936801F199
:101950008051194041F08051916040F20801C2F27B
:101960000001096842F663538909C0F23E53A1FBA6
:1019700003139909022303EB410101910199A1B1DC
:10198000019901390191019979B1019901390191C7
:10199000019951B1019901390191019929B1019937
:1019A0000139019101990029EAD19168C90011D446
:1019B000416D4FF0010E41F010014165816D41F024
:1019C0000101816508E000BF4FF0010E704602B0D2
:1019D000B0BD00BF4FF0000E9368446D03F00403E8
:1019E00004F010041B19436D68D123F48173023392
:1019F00043659368DB0712D140F208334FF6005479
:101A0000C5F20403CFF6FF741C59E40707D1D0F8E0
:101A100004C01C6824F47C1444EA0C041C60437E5B
:101A2000446BD0E902C144EA4333194390F82030B3
:101A300041EA0C01012B41EA034306D1416A00242B
:101A4000CFF6FE7404EB41410B43846A24B1C16AB2
:101A500004F4707421430B43D1684CF20704CFF6B1
:101A6000F07421401943D1609168936801F004013A
:101A700003F00803C9182CD190F83030017E5B00C8
:101A800090F838C043EA8131D36844F20204A3439A
:101A90001943D1601369BCF1010F17D140F2FD71F8
:101AA00023EA010CD0E90F34D0E9111543EA0C0305
:101AB00023431943294341F0010309E043F0100295
:101AC0004FF0010E4265704602B0B0BD23F0010335
:101AD00013610169136B012923F00F0302D1C1695E
:101AE00001390B431363426D012161F30102426529
:101AF000704602B0B0BD000010B59CB00446002096
:101B00001B90CDE91900CDE9170002A8203034213F
:101B1000FEF703FF20680021C5F20401884201D0CE
:101B20001CB010BD4FF4804002904FF080501490D4
:101B30000120CDE903001020059007200690022027
:101B4000CDE907004FF08070099002A801F04EF82F
:101B5000002818BFFFF728FD41F24C00C4F2020034
:101B6000016841F400510160016801F400510191E4
:101B70000199016841F001010160006817A900F0B6
:101B8000010001900198082017900B201890002068
:101B900019904FF0904000F075F81CB010BD000097
:101BA000014690F82500022818D10868D1E910C331
:101BB000026822F00E020260026822F00102026056
:101BC00003F01C00012202FA00F0CCF8040081F8B6
:101BD00025200020002281F8242070470420C863BB
:101BE0000120002281F824207047000090F8251081
:101BF000022921D180B50268D0F838C0D0E910E1BF
:101C0000136801F01C0123F00E0313601368BCF18C
:101C1000000F23F0010313604FF0010202FA01F1FB
:101C2000CEF804104FF0000180F8252080F8241031
:101C300018BFE047002080BD0421C1630120704728
:101C4000B0B5044600F006F9054640F20000C2F2C5
:101C500000000078611C18BF044400BF00F0FAF8CF
:101C6000401BA042FAD3B0BD7047000040F21441BF
:101C7000C4F201010A68024214BF08607047FFF70E
:101C8000F3BF00002DE9F04F83B00C68002C00F08A
:101C9000CF8000F1200240F2004E009240F6000298
:101CA000C4F2010EC4F600020723002500274FF0FE
:101CB0000008904208BF022301934DE040F2004229
:101CC000C4F60002DDF80490904208BF4FF001090D
:101CD00005F00C060F22B2402CEA020209FA06F6C1
:101CE0004FEA9803324344F82320DEF808204B687B
:101CF00042EA0A0640F20C4CDC0258BF22EA0A060D
:101D0000CEF80860C4F2010CDCF800209C0242EA24
:101D10000A0658BF22EA0A06CCF80060DEF8042062
:101D20009C0342EA0A0658BF22EA0A06CEF804607B
:101D3000DEF80020DB0342EA0A0658BF22EA0A0660
:101D4000CEF800600C6808F1010834FA08F207F1D7
:101D5000020705F104056BD0012202FA08FC14EA1F
:101D60000C0AEFD0D1F804B003230BF00304621E79
:101D700003FA07F6012A6FEA060911D88268CE68CD
:101D800002EA0902BE40324382604268CBF3001689
:101D900022EA0C0206FA08F63243426004E000BF71
:101DA000032C01D103241EE0C2688E6802EA0902F6
:101DB000BE403243022CC26015D16FF0030202EA2A
:101DC000580B009A05F01C0452F80BC00F230E6943
:101DD000A3402CEA0303A640334342F80B30D1F86A
:101DE00004B00BF00304026804FA07F302EA0902E4
:101DF0001A431BF4403F0260A4D041F26003C4F2D6
:101E000002031A68AEF57E7442F001021A601A6885
:101E1000B0F1904F02F001020292029A28F0030200
:101E200054F802C07FF44AAF4FF0000950E700BFFA
:101E300003B000F000B830BCBDE8C08F00690840B6
:101E400018BF0120704700001823002A08BF28236C
:101E5000C150704741F22C50C2F200000068704738
:101E600090F84120202A03D190F84020012A01D186
:101E700002207047242280F841200268136823F072
:101E800001031360136823F480531360136819432C
:101E90001160116841F001011160202180F84110AA
:101EA000002180F8401000207047000090F8412089
:101EB000202A03D190F84020012A01D10220704746
:101EC000242280F841200268136823F00103136084
:101ED000136823F4706343EA01211160116841F033
:101EE00001011160202180F84110002180F840108C
:101EF00000207047002804BF0120704710B590F8FB
:101F0000411031B9002180F84010044600F0F2FC85
:101F10002046242180F8411090E81210C3680A6816
:101F2000012B22F001020A6024F070620A618A68C3
:101F300022F400428A6003D14CF400428A6007E038
:101F40004CF40442022B8A6004BF4FF400624A60E2
:101F50004A6800F1100C42F0007242F400424A60FC
:101F6000CA6822F40042CA609CE81C101A4342EA84
:101F70000422CA60026A42EA0C020A600A6842F05D
:101F800001020A6000212022416480F8412001639F
:101F900080F84210002010BD2DE9F04F83B00446B8
:101FA0000020029094F84100202808D11D462368A3
:101FB0009869000403D494F84000012804D1022059
:101FC00003B000F0C8B800BF012084F8400024200E
:101FD00084F84100002060640A20884660F39F284E
:101FE00048F2080060F39F216F1C4FF0200A09E0BF
:101FF000C3F81CA002985A46013002900298494644
:10200000584573D2E068934601284046894608BF88
:1020100008465860FFF71EFF2368064699699A69CB
:1020200001F0200102F01002891837D09869C0062B
:1020300064D5986980060DD4D7B3002D78D000BF41
:10204000FFF708FF801BA84274D8236898698006B0
:10205000F6D500BF1020D861C3F81CA002985845DF
:10206000C8D1586840F48040586098698006BFD451
:1020700067B3002D5CD000BFFFF7ECFE801BA842C9
:1020800058D8236898698006F6D5B1E798699969A8
:1020900000F0200001F010014018C7D1002FF5D04A
:1020A000FFF7D8FE15B3801BA8421FD82368EDE7C1
:1020B00098698006CED4986980065CBF98695FEA0B
:1020C0008060C7D498698006F2D5C3E79869800616
:1020D0003FF58EAF986980065CBF98695FEA8060C3
:1020E0003FF586AF98698006F0D581E7202084F817
:1020F0004100606C40F02000606425E02046202113
:1021000000222B460096202503F002FA20B1012080
:1021100003B000F020B800BF2068C56184F84150CA
:102120000020002184F8401003B000F014B800BF74
:10213000FFF790FE606C40F020006064202084F87F
:102140004100002084F842000120002184F8401062
:1021500003B000F000B830BCBDE8C08F2DE9F04FEF
:1021600081B0044690F84100202803D194F8400043
:10217000012803D1022001B000F0E8B801200E468A
:102180001746984684F84000FFF764FE216805462C
:102190008A6912040AD500BFFFF75CFE401B1928AC
:1021A00000F2C480216888690004F5D4212284F8F3
:1021B0004120102284F84220002262646762A4F861
:1021C0002A806263628D49F6000040F20008CFF673
:1021D0000040C0F2FF18B2F5807F6FF39F2609D34D
:1021E0004A6802403243424402F500524A60FF22EC
:1021F0000BE000BF628D4F68D3B246EA034307404D
:102200003B4308F590373B434B602285628D0A9F24
:10221000002A5BD006F1007907F1010A00F5806B16
:102220000DE000BF608D20854A68C0B249EA0040D9
:1022300002EA0B0210434860608D002846D0204619
:1022400039462A4603F0F4F900285AD1606A216819
:1022500010F8012B8A626062608D01386085208DE4
:1022600001382085628D002AE6D00004E4D1886917
:1022700000060FD4BAF1000F1AD0002F54D000BFBF
:10228000FFF7E8FD401BB84250D821688869000676
:10229000F6D500BF608DB0F5807FC3D3FF202085C9
:1022A000486800EA0B00304340EA0800C3E700BF7B
:1022B00088690006EED4886900065CBF88695FEA19
:1022C0000060E7D488690006F2D5E3E787B100BF74
:1022D00021688869800619D4204639462A4602F0CA
:1022E000ADFF70B9FFF7B6FD401BB842F0D91DE055
:1022F000886980060AD4204600212A4602F09EFF03
:1023000090B1012001B000F021B800BF2020C861C9
:102310004A684EF60003CFF600631A404A6084F81C
:10232000410000200AE000BFFFF794FD606C40F020
:1023300020006064202084F841000120002184F8FE
:10234000421084F8401001B000F000B830BCBDE885
:10235000C08F00002DE9F04F83B0044690F8410093
:1023600020280AD10C9E6EB1DDF83480B8F1000F40
:1023700008D094F8400001280CD1022003B000F0EE
:102380005FB900BF4FF400706064012003B000F03B
:1023900057B900BF01201F469246894684F8400085
:1023A000FFF758FD216805468A6912040AD500BF67
:1023B000FFF750FD401B192800F23281216888691F
:1023C0000004F5D4222084F8410040204FF0000B97
:1023D00084F84200C4F844B06662A4F82A80C4F8C5
:1023E00034B049F600034A68CFF600436FF39F29E3
:1023F000F8B249EA00401A40DDF838C0104400F550
:102400000050CDF808904860204661462A46E146D3
:10241000984603F00DF928B184F840B0012003B0CC
:1024200000F00EB92068012F0AD04FEA1A2181620C
:10243000204649462A4603F0FBF80028ECD12068E4
:102440005FFA8AF181628169490613D4B9F1000FFC
:1024500000F0B68019F1010120D18169490609D443
:10246000816949065CBF81695FEA416102D4816983
:102470004906F2D5618D0026B1F5807FC0F2FF16C6
:1024800012D350F8041F374601EA080206F510532C
:10249000FF2114E0206881694906EBD4FFF7DAFCDC
:1024A000401B4845F6D98DE0618D50F8042FCBB222
:1024B00002EA080242EA0342374606F59233029ED8
:1024C0001A433243026006F1007009F1010B08F56E
:1024D000806A3E46218501900EE000BF618D218516
:1024E0004268019BC9B243EA014102EA0A02114370
:1024F0004160608D002875D020688169490711D43A
:10250000BBF1000F40D0B9F1000F00F0878000BF91
:10251000FFF7A0FC401B484500F2828020688169DB
:102520004907F5D5406A616A0870606A218D0130FB
:102530006062481E2085618D01396185618D0029A9
:10254000D7D00004D5D12068816909060ED4BBF12B
:10255000000F27D0B9F1000F60D0FFF77BFC401BC4
:1025600048455DD8206881690906F6D5618DB1F5C9
:10257000807FB3D3FF2121854168029A01EA0A01D5
:1025800011433143B4E700BF81694907CAD4816967
:1025900049075CBF81695FEA4171C3D4816949071A
:1025A000F2D5BFE781690906E0D4816909065CBFFD
:1025B00081695FEA0161D9D481690906F2D5D5E75D
:1025C000FFF748FC606C40F020006064202084F835
:1025D0004100002084F8420084F840B0012003B09C
:1025E00000F02EB8204649462A4602F0EBFF0028AC
:1025F0007FF4CBAE20682021C16142684EF6000313
:10260000CFF600631A404260002084F8411084F83D
:10261000420084F8400003B000F012B8FFF71AFC43
:10262000606C40F020006064202084F841000020AD
:1026300084F8420084F84000012003B000F000B8A4
:1026400030BCBDE8C08F00002DE9F04F81B00446DA
:1026500090F84100202807D10A9E4EB10B9F3FB150
:1026600094F8400001280BD1022001B000F03EB9DF
:102670004FF400706064012001B000F037B900BF72
:102680000120994690468A4684F84000FFF7E2FB15
:10269000216805468A6912040AD500BFFFF7DAFBF4
:1026A000401B192800F21281216888690004F5D4C2
:1026B00021200C9A84F8410040204FF0000B6FF36A
:1026C0009F2A49F6004384F84200C4F844B0666289
:1026D0006785C4F834B0CDF800A0CFF600435FFAA8
:1026E00089F016464A684AEA00409A46A3F5806394
:1026F0001A40104440F0807040F40050486020467A
:1027000031462A4602F094FF30B184F840B00120EF
:1027100001B000F0EBB800BF2068B9F1010F0AD09A
:102720004FEA18218162204631462A4602F080FF96
:102730000028EAD120685FFA88F181628169090680
:1027400011D4002E00F0AE80711C1FD181690906E2
:1027500009D4816909065CBF81695FEA016102D41D
:1027600081690906F2D5618D40F20009B1F5807FDB
:10277000C0F2FF1910D350F8041F4B4601EA0A02B9
:10278000FF2113E0206881690906ECD4FFF762FBA2
:10279000401BB042F6D987E0618D50F8042FCBB2D0
:1027A00002EA0A0242EA03424FF00073009F1A4312
:1027B0003A4307F1007706F1010B4FF0FF08026082
:1027C00021850CE0618D21854268C9B247EA01414B
:1027D00002EA0A0211434160608D002846D020467B
:1027E00031462A4602F024FF00287FF444AF616A94
:1027F000206811F8012B82626162618D0139618567
:10280000218D01392185628D002AE5D00904E3D1AB
:10281000816909060DD4BBF1000F19D0002E53D0E9
:10282000FFF718FB401BB04250D8206881690906A9
:10283000F6D5618DB1F5807FC4D3A4F828804168B6
:10284000009A01EA0A01114341EA0901C3E700BF06
:1028500081690906EDD4816909065CBF81695FEA77
:102860000161E6D481690906F2D5E2E720463146E6
:102870002A4602F0A7FE00287FF4FDAE2068202142
:10288000C16142684EF60003CFF600631A40426011
:10289000002084F8411084F8420084F8400001B020
:1028A00000F024B8FFF7D6FA606C40F020006064B6
:1028B000202084F84100002084F8420084F840B0D1
:1028C000012001B000F012B8FFF7C4FA606C40F0CC
:1028D00020006064202084F84100002084F8420039
:1028E00084F84000012001B000F000B830BCBDE821
:1028F000C08F000010B59CB0044600201B90CDE9AD
:102900001900CDE9170002A804305021FEF705F8A0
:10291000206845F20041C4F20001884202D01CB098
:1029200010BD00BF4020029002A800F05FF900280F
:1029300018BFFEF739FE41F24C04C4F202042068CD
:1029400017A940F001002060206800F0010001900C
:1029500001984FF4C0601790122018900020199031
:1029600003201A9004201B904FF09040FFF78AF943
:10297000E06840F40010E060E06800F400100190AE
:1029800001981CB010BD000040F2000041F22C5133
:10299000C2F20000C2F2000100780A681044086028
:1029A0007047000080B5032000F0AEF80F2000F063
:1029B00009F800281CBF012080BD00F049F8002064
:1029C00080BD000010B586B0014619200022002409
:1029D00000F06EF8192000F059F841F26000C4F2DE
:1029E0000200016841F4006101600068694600F47A
:1029F00000600190019801A800F05AFB00F090FBE4
:102A00004DF68361C4F21B31A0FB01014FF0FF3092
:102A100000EB914140F2842042F60042C2F20000F5
:102A2000C4F2010240F2E733C0E90021C0E90243E9
:102A3000046101F025F818B1012006B010BD00BFF7
:102A400040F28420C2F2000001F08EF806B010BD02
:102A500082B041F25800C4F202008168002241F0C5
:102A600001018160816801F0010101910199016812
:102A700041F08051016000680F2100F0805000900B
:102A800000986FF0010002B000F012B8002848BFB3
:102A9000704700F01F01012202FA01F11C2202EA34
:102AA000D0004EF20012CEF20002815070470000BA
:102AB00010B54EF60C5CCEF2000CDCF80030C3F31F
:102AC000022E8EF00704042C28BF0424BEF1030359
:102AD0004FF0FF3E0EFA04F438BF0023A1439940A3
:102AE0000EFA03F39A43114300F00F0200F1604322
:102AF0000901043A03F564436244002848BF02F127
:102B00000C03197010BD00004EF60C51CEF20001FE
:102B10000A684FF6FF031A4060F30A2242F0806011
:102B200040F0FD700860704747F20001C4F20001F8
:102B30000A68B0F5007F02F4C06031D1B0F5007FC3
:102B40002CD00868012262F34A20086040F2080095
:102B5000C2F200000068322250434DF68362C4F294
:102B60001B32A0FB0202900C4A69520511D5421C8F
:102B70000FD04A6952050CD558B14A69520508D59B
:102B8000012806D04A69520503D50228A0F10400A5
:102B9000EAD14869400544BF0320704700207047D0
:102BA000B0F5806FFAD00868022262F34A2008600C
:102BB0000020704747F20000C4F20000006800F4F3
:102BC000C060704747F20000C4F20000016841F4A1
:102BD000807101607047000041F20000C4F2020001
:102BE000016841F004010160704700002DE9F043E5
:102BF00081B00446407841F288070007C4F202071A
:102C00001ED5E06B80B1B0F5400F14D0B0F5000FC9
:102C100040F0148157F87C0C40F4803047F87C0C6D
:102C20004FF4000007E000BF201D002102F056FF16
:102C3000814638B9E06B396821F4400108433860B7
:102C40004FF00009A078800752D557F8300C5FEAA2
:102C5000C0080BD457F8300C40F0805047F8300CC7
:102C600057F8300C00F080500090009847F20005B3
:102C7000C4F20005286840F480702860FFF7EAF885
:102C8000064600BF2868C00508D4FFF7E3F8801B9C
:102C90000228F7D94FF0030921E000BFB9F1000F76
:102CA0001DD1B86810F4407011D0216D88420BD04E
:102CB000B868B96820F4407041F48031B960B968EF
:102CC00021F48031B960B860C00740F0BF80B868B7
:102CD000216D20F4407008434FF00009B860B8F14E
:102CE000000F05D457F8300C20F0805047F8300C16
:102CF0002168C8070ED1880714D488061AD488051D
:102D000020D4480526D448062CD4C80532D48804DB
:102D100038D449E03868226A20F003001043386054
:102D20008807EAD53868626A20F00C0010433860E2
:102D30008806E4D53868A26A20F440601043386001
:102D40008805DED53868626B20F440201043386077
:102D50004805D8D53868A26B20F44010104338607D
:102D60004806D2D53868E26A20F4405010433860F3
:102D7000C805CCD53868226B20F440301043386049
:102D8000880411D53A68206C22F040620243B0F109
:102D9000806F3A601ED0B0F1006F05D157F87C0CFF
:102DA00040F4801047F87C0C480327D53A68606CE3
:102DB00022F040620243B0F1806F3A6016D0B0F169
:102DC000006F1BD157F87C0C40F4801047F87C0C46
:102DD00014E000BF201D012102F080FE21680028C0
:102DE00018BF81464803E1D408E000BF201D01213F
:102DF00002F074FE2168002818BF8146480410D5EF
:102E00003868A26C20F040501043B2F1805F386007
:102E100007D1201D022102F061FE2168002818BFA1
:102E20008146080405D53868E16C20F080400843ED
:102E30003860484601B0BDE8F08300BF4FF001099B
:102E4000A07880073FF501AF52E700BFFFF702F817
:102E5000064641F288354FF0030900BFB868800785
:102E60003FF535AFFEF7F6FF801BA842F6D936E7EF
:102E70002DE9F04381B0002800F08C8042F2000977
:102E8000C4F202090446D9F8000000F007008142AC
:102E90000CD9D9F8000020F007000843C9F8000059
:102EA000D9F8000000F00700884273D1206841F291
:102EB000080610F00202C4F202060AD0A3683768BE
:102EC00007F0F007BB4204D9376827F0F0073B430F
:102ED0003360C30734D0606856F8082C50B102281C
:102EE00004D003280AD192010AD453E0920307D4F4
:102EF00050E000BF920703D44CE000BF520549D513
:102F00008846316821F0030108433060FEF7A2FFD4
:102F1000054641F2883700BF3068616800F00C0058
:102F2000B0EB810F08D0FEF795FF401BB842F3D9F4
:102F3000032001B0BDE8F0832068414600F00202A2
:102F400052B1A268336803F0F0039A4204D23368A6
:102F500023F0F0031A433260D9F8002002F0070290
:102F600091420CD2D9F8002022F007020A43C9F896
:102F70000020D9F8002002F007028A420AD1410756
:102F80000CD4000712D43068716810F00C0019D10D
:102F90001EE000BF012001B0BDE8F0833168E268A7
:102FA00021F4E061114331600007ECD530682169FC
:102FB00020F4605040EAC10030603068716810F061
:102FC0000C0005D00C282BD101F00301012927D1D9
:102FD00056F8081C042211F008016FF0070108BF21
:102FE0008C21715808BF0822D14048F6FC1201F02C
:102FF0000F01C0F6000252F8211000280A4618BF3F
:1030000000220C2838D1706800F00300022811D08B
:10301000032804BF41F20021C0F27A010EE000BF94
:1030200004281FD0082823D141F20022C0F27A02DE
:1030300022E000BF42F20041C0F2F4017068726801
:10304000C0F30210C2F30622514372680130B1FB93
:10305000F0F0C2F34161022202EB4101B0FBF1F258
:103060000AE000BF42F20042C0F2F40204E000BFF6
:10307000002200210C28C6D0306848F6E311C0F3C6
:103080000310C0F60001085C00F01F0022FA00F1F6
:1030900040F20400C2F2000040F208020068C2F2EE
:1030A0000002116001B0BDE8F043FFF78BBC0000E7
:1030B0000F22026041F20802C4F20202136803F018
:1030C00003034360136803F0F0038360136803F4A1
:1030D000E063C36012684FF4E06303EAD202026166
:1030E00042F20000C4F20200006800F0070008602D
:1030F0007047000040F2080041F20801C2F20000EF
:10310000C4F202010068096848F6F312C1F3022113
:10311000C0F60002515C01F01F01C840704700007A
:1031200040F2080041F20801C2F20000C4F20201BC
:103130000068096848F6F312C1F3C221C0F6000224
:10314000515C01F01F01C8407047000041F20C01C2
:10315000C4F2020151F8040C10F00C02086805D00A
:103160000C2A2BD100F00300012827D151F80C0CB8
:10317000042310F008006FF00B0008BF88200858E7
:1031800008BF0823D84048F6FC1300F00F00C0F633
:10319000000353F82030002A184618BF00200C2ADC
:1031A00018BF7047086800F00300022810D00328F9
:1031B00004BF41F20023C0F27A030DE0042A1FD0BD
:1031C000082A23D141F20020C0F27A00704700BFE4
:1031D00042F20043C0F2F40308680A68C0F3021028
:1031E000C2F30622096801305A43B2FBF0F0C1F382
:1031F0004161022202EB4101B0FBF1F0704700BFD8
:1032000042F20040C0F2F400704700BF00200023EB
:10321000C5E70000002804BF012070472DE9F043F6
:1032200083B041F200060446C4F20206B068F168B9
:10323000227800F00C09D00601F003081ED4207893
:10324000C00700F08880B9F1080F00F07D80B9F167
:103250000C0F08BFB8F1030F76D061683068B1F584
:10326000803F07D0B1F5A02F40F0528240F480207B
:103270003060306840F48030306053E2B9F1000FC4
:103280001CD0B9F10C0F08BFB8F1010F16D0A1691D
:103290003068002900F0A08140F001003060FEF7A6
:1032A000D9FD05463068800700F1A881FEF7D2FD00
:1032B000401B02284FF00300F4D960E33068800718
:1032C00003D5A069002800F00F83256A3068000745
:1032D00000F14A81D6F89400000900F0F000854220
:1032E00000F248813068B9F1000F40F0080030600A
:1032F000306820F0F00040EA050030607068E16955
:1033000020F47F4040EA0120706040F0B882B06D48
:10331000C00000F15582B06D40F08050B065B06DD6
:1033200000F0805002900298FFF744FCB16D21F04C
:103330008051B165B0F5007F00F04882802D40F2E9
:10334000858203208DE200BF3068800303D560686A
:10335000002800F0C982207880072DD5B9F1040F2C
:103360001CD0B9F10C0F08BFB8F1020F16D0E168FC
:103370003068002900F0E68140F480703060FEF78C
:1033800069FD0546306840050FD4FEF763FD401B1C
:1033900002284FF00300F5D9F1E200BF3068400584
:1033A00003D5E068002800F09F827068216920F052
:1033B000F85040EA016070602078000760D42078FF
:1033C000400779D42078800600F1B280A06A0028F6
:1033D00000F01683022840F02381F068E16A00F0D3
:1033E00003028A4240F03481226B6FF00F0300F039
:1033F000700103EB0212914240F02A81616B00F4EC
:10340000FE42B2EB012F40F02381A16B00F0784225
:10341000B2EBC16F40F01C81E26B0023CFF6E0738A
:1034200003EA025200F4C001A2F50012914240F0FA
:103430000F81216C4FF07E4202EA016100F0C06012
:1034400001F17E41884240F003813068800100F143
:10345000D782306840F080703060F06840F0807053
:10346000F060FEF7F7FC04463068800100F1C88286
:10347000FEF7F0FC001B02284FF00300F4D97EE2B7
:103480006169D6F89400002900F0908040F00100B6
:10349000C6F89400FEF7DEFC054600BFD6F894009F
:1034A00080078CD4FEF7D6FC401B0228F6D90320F7
:1034B00003B0BDE8F08300BFB06D5FEAC00808D478
:1034C000B06D40F08050B065B06D00F0805000905D
:1034D000009847F20007C4F200073868C00513D40B
:1034E000386840F480703860FEF7B4FC054600BFD1
:1034F0003868C00508D4FEF7ADFC401B02284FF029
:103500000300F5D93BE200BFA168D6F8900001297D
:1035100008D0052940F0DC8040F00400C6F8900097
:10352000D6F8900040F00100C6F89000DCE000BF43
:10353000616AD6F89800002900F0B48040F00100DC
:10354000C6F89800FEF786FC054600BFD6F898003E
:1035500080073FF53BAFFEF77DFC401B02284FF094
:103560000300F3D90BE200BF306800F0F0008542A1
:103570007FF6B8AEB06DC00000F18680B06D40F04F
:103580008050B065B06D00F0805001900198FFF759
:1035900011FBB16D21F08051B165B0F5007F79D09C
:1035A000802D40F2E1800320E9E000BF20F001001F
:1035B000C6F89400FEF74EFC054600BFD6F894000E
:1035C00080077FF5FCAEFEF745FC401B02284FF05C
:1035D0000300F3D9D3E100BF20F001003060FEF713
:1035E00039FC0546306880077FF529AEFEF732FCCE
:1035F000401B02284FF00300F4D9C0E1306840F0CE
:10360000080030603068D4E9071220F0F000104361
:103610003060706820F47F4040EA012070600EE660
:10362000B9F10C0F00F06081306820F080703060DC
:10363000FEF710FC044600BF3068800140F1EA80CC
:10364000FEF708FC001B02284FF00300F4D996E1B6
:10365000B9F10C0F00F048813068400100F144815D
:10366000306820F080703060FEF7F4FB054600BF44
:103670003068800140F18681FEF7ECFB401B022898
:103680004FF00300F4D97AE1FFF794FAB0F5007F28
:103690007FF486AF812D71D30120A02D88BF022039
:1036A0006DE000BF20F00100C6F89800FEF7D2FBE5
:1036B000054600BFD6F8980080077FF587AEFEF775
:1036C000C9FB401B02284FF00300F3D957E100BFAC
:1036D00020F00100C6F89000D6F89000002920F0F4
:1036E0000400C6F8900079D0FEF7B4FB054641F21D
:1036F000883700BFD6F89000800700F18180FEF780
:10370000A9FB401BB842F5D9032003B0BDE8F08304
:1037100020F4803030603068002920F48020306050
:1037200000F08480FEF796FB054600BF30688003FA
:103730003FF511AEFEF78EFB401B64284FF00300EF
:10374000F4D91CE120F480703060FEF783FB05465D
:10375000306840057FF530AEFEF77CFB401B022849
:103760004FF00300F4D90AE1A5F17000B0FA80F03F
:103770004009802D08BF022001E000BF002042F276
:103780000001C4F202010A6822F0070202440A6042
:10379000096801F00701814240F0A680306840F0DE
:1037A000080030603068D4E9071220F0F0001043C0
:1037B0003060706820F47F4040EA012070605EE075
:1037C000FFF7F8F9B0F5007F7FF4B8AD812D47D34E
:1037D0000120A02D88BF022043E000BFFEF73AFB86
:1037E000054641F2883700BFD6F89000800707D51C
:1037F000FEF730FB401BB8424FF00300F4D9BEE0A7
:10380000B8F1000F3FF5DEADB06D20F08050B0652F
:10381000D8E500BFF0684FF6FC71CFF6EE610840C6
:10382000F060002003B0BDE8F08300BFFEF712FB9C
:10383000054600BF306880037FF58DADFEF70AFBBB
:10384000401B64284FF00300F4D998E0A5F1700004
:10385000B0FA80F04009802D08BF022001E000BFCF
:10386000002042F20001C4F202010A6822F00702BD
:1038700002440A60096801F00701814234D1B0684E
:10388000F16810F00C0005D00C2831D101F00301D3
:1038900001292DD1314651F8942B12F008023246FD
:1038A00008BF0A464FF00401126808BF082122FA37
:1038B00001F148F6FC1201F00F01C0F6000252F8C7
:1038C000211000280A4618BF00220C283CD1F068BD
:1038D00000F00300022815D0032804BF41F20021A4
:1038E000C0F27A0112E000BF012003B0BDE8F0830E
:1038F00004281FD0082823D141F20022C0F27A0206
:1039000022E000BF42F20041C0F2F401F068F26828
:10391000C0F30210C2F306225143F2680130B1FB3A
:10392000F0F0C2F34161022202EB4101B0FBF1F27F
:103930000AE000BF42F20042C0F2F40204E000BF1D
:10394000002200210C28C2D0B06848F6E311C0F371
:103950000310C0F60001085C00F01F0022FA00F11D
:1039600040F20400C2F2000040F208020068C2F215
:1039700000021160FFF726F800283FF460AC03B0A6
:10398000BDE8F083F06848F28C01C0F29D1104F1AB
:103990002C0700EA010C8ECF6FF00F00D4E90F5412
:1039A00000EB02100022CFF6E07241EA0C0102EABD
:1039B00005520843A2F500124FF07E4540EA03206D
:1039C00005EA0465104305F17E4540EAC7602843D7
:1039D000F060306840F080703060F06840F08070D7
:1039E000F060FEF737FA04463068800108D4FEF72D
:1039F00031FA001B02284FF00300F5D9BFE700BFE2
:103A0000002003B0BDE8F08370470000704700005D
:103A10007047000090F83C20012A4FF002022DD0A0
:103A200010B580F83D20026842F6004C5368D2F889
:103A300008E0C4F2010C624503D14C6823F4700322
:103A400023430C6823F070032343B2F1804F53608B
:103A500007D044F20003C4F201039A4201D0624548
:103A600004D189682EF0800319439160012100225E
:103A700080F83D1080F83C20BDE8104010467047AB
:103A8000002804BF01207047B0B590F83D1031B94F
:103A9000002180F83C10044600F064F82046022122
:103AA00080F83D10016842F6004E0B68C4F2010E2A
:103AB000714502D0B1F1804F03D1846823F07003C7
:103AC000234343F6FF74C4F2010444F2004CA142C4
:103AD000C4F2010C06DCB1F1804F0BD0714509D066
:103AE0000CE000BF614505D044F20004C4F20104BB
:103AF000A14203D1046923F440732343826923F074
:103B000080034468C5681A4371450A60CD628C62BF
:103B100018BF61451ED142690A6301224A6180F8DB
:103B2000482080F83E2080F83F2080F8402080F830
:103B3000412080F8422080F8432080F8442080F81B
:103B4000452080F8462080F8472080F83D2000205E
:103B5000B0BD00BF44F20002C4F201029142DAD0CB
:103B6000DBE700007047000090F83D10012929D1E3
:103B7000022180F83D100168C868B1F1804F40F023
:103B80000100C8600BD044F20000C4F20100814281
:103B900005D042F60040C4F2010081420CD1886891
:103BA0000722C0F201020240062A4FF000000AD0AC
:103BB000B2F5803F08BF7047086840F00100086018
:103BC00000207047012070477047000010B5016861
:103BD00004460869800744BFC8685FEA80703FD424
:103BE0000869400744BFC8685FEA407044D4086968
:103BF000000744BFC8685FEA00704BD40869C0067C
:103C000044BFC8685FEAC06050D40869C0071CBFE1
:103C1000C8685FEAC07057D10869000644BFC86829
:103C20005FEA006058D40869C00544BFC8685FEA0D
:103C3000006059D40869400644BFC8685FEA406024
:103C40005AD40869800646BFC8685FEA806010BD24
:103C50006FF0200220460A61BDE81040FFF7D8BE91
:103C60006FF00200086101202077886980074BD03F
:103C70002046FFF7A9FF4DE06FF004000861022025
:103C80002077886910F4407F48D02046FFF79CFFDA
:103C90004AE000BF6FF00800086104202077C8697F
:103CA000800745D02046FFF78FFF47E06FF01000F8
:103CB000086108202077C86910F4407F42D0204670
:103CC000FFF782FF44E000BF6FF00100086120466B
:103CD00000F0DCFA21689FE76FF080000861204661
:103CE000FFF794FE21689EE76FF48070086120461C
:103CF000FFF78AFE21689DE76FF0400008612046CB
:103D000000F0CEFA21689CE7204600F04FF82046EC
:103D100000F0BAFA21680020207761E7204600F021
:103D200045F8204600F0B0FA2168002020775EE7D1
:103D3000204600F03BF8204600F0A6FA216800205B
:103D400020775BE7204600F031F8204600F09CFA2F
:103D500021680020207758E780B586B000680021F0
:103D6000B0F1804F0591CDE903110291019101D08D
:103D700006B080BD41F24C00C4F20200026842F07D
:103D800001020260006800F001000090009822200B
:103D900001900220CDE9020101200491059001A9C2
:103DA0004FF09040FDF76EFF06B080BD70470000F9
:103DB00090F83C30012B04BF022070474FEAB2025A
:103DC000052A00F2C9812DE9F041DFE812F0070071
:103DD0002D019F00ED005F00790100BF036842F6EE
:103DE00000461A6AC4F2010622F001021A621D6A34
:103DF0001A46D3F804C052F818EF8F68D1F8008043
:103E000025F00205B34245EA07050BD044F200470E
:103E1000C4F20107BB4205D044F20007C4F2010717
:103E2000BB4205D1CF6825F00C0527F004073D43C0
:103E3000B3420BD044F20046C4F20106B34205D0AF
:103E400044F20006C4F20106B34206D1D1E9056787
:103E50002CF44074264346EA070C4FF68C74CFF6D8
:103E6000FE740EEA040747EA0807C3F804C09F611E
:103E70004F6809695F631D629F6947F008079F618A
:103E80009F6927F004079F615BE100BF036842F66A
:103E900000471A6AC4F2010722F480321A621A46F5
:103EA0001C6A5D6852F854EFD1F800C08E68BB42BE
:103EB0000BD044F20047C4F20107BB4205D044F2E4
:103EC0000007C4F20107BB4204D14F6925F48035D5
:103ED00045EA072524F4003444EA06444FF68C767C
:103EE000CFF6FE7603360EEA060747EA0C075D605A
:103EF0005F654F6809699F651C625F6D47F0080741
:103F00005F655F6D27F004075F651AE1036842F69D
:103F100000461A6AC4F2010622F480721A621F6A0D
:103F20001A465D6852F81CCF8C6827F40077B342BC
:103F300047EA042409D1CF6824F4406E3F0240F2DE
:103F4000FF4427EA040444EA0E04D1F800E0B34237
:103F50000BD044F20046C4F20106B34205D044F24D
:103F60000006C4F20106B34206D1D1E9056725F483
:103F700040553E4345EA06154FF68C76CFF6FE7661
:103F80000CEA060747EA0E075D60DF614F680969C2
:103F9000DF631C62DF6947F00807DF61DF6927F034
:103FA0000407DF61CDE000BF036842F600471A6AEC
:103FB000C4F2010722F480521A621A461C6A5D6834
:103FC00052F81CCFD1F800E08E68BB420BD044F20F
:103FD0000047C4F20107BB4205D044F20007C4F217
:103FE0000107BB4204D14F6925F4804545EA871596
:103FF00024F4005444EA063448F6FF46CFF6FF6640
:104000000CEA060747EA0E275D60DF614F68096921
:104010001F641C62DF6947F40067DF61DF6927F412
:104020008067DF618CE000BF036842F600461A6AD1
:10403000C4F2010622F010021A621F6A1A465D6875
:1040400052F818CF8C6827F02007B34247EA0414CF
:1040500008D124F0C00ECC686FF0400707EA0414C2
:1040600044EA0E04D1F800E0B3420BD044F200461B
:10407000C4F20106B34205D044F20006C4F20106C0
:10408000B34206D1D1E9056725F440653E4345EAD0
:10409000860548F6FF46CFF6FF660CEA060747EAB4
:1040A0000E275D609F614F6809699F631C629F696D
:1040B00047F400679F619F6927F480679F613FE035
:1040C000036842F600471A6AC4F2010722F480121C
:1040D0001A621A461C6A5D6852F854EFD1F800C0A3
:1040E0008E68BB420BD044F20047C4F20107BB42CA
:1040F00005D044F20007C4F20107BB4204D14F6966
:1041000025F4802545EA872524F4001444EA065462
:1041100048F6FF46CFF6FF6606F540760EEA06073C
:1041200047EA0C275D605F654F680969DF651C62BF
:104130005F6D47F400675F655F6D27F480675F65BB
:1041400009021368194311600021BDE8F041002203
:1041500080F83C20084670470121002280F83C206E
:1041600008467047002804BF01207047B0B590F89A
:104170003D1031B9002180F83C10044600F064F88D
:104180002046022180F83D10016842F6004E0B687F
:10419000C4F2010E714502D0B1F1804F03D18468A1
:1041A00023F07003234343F6FF74C4F2010444F286
:1041B000004CA142C4F2010C06DCB1F1804F0BD0DF
:1041C000714509D00CE000BF614505D044F2000400
:1041D000C4F20104A14203D1046923F440732343D0
:1041E000826923F080034468C5681A4371450A60F8
:1041F000CD628C6218BF61451ED142690A630122FB
:104200004A6180F8482080F83E2080F83F2080F8FE
:10421000402080F8412080F8422080F8432080F838
:10422000442080F8452080F8462080F8472080F818
:104230003D200020B0BD00BF44F20002C4F20102E4
:104240009142DAD0DBE700000068B0F1804F18BF80
:10425000704780B582B041F25800C4F20200016894
:10426000002241F0010101600068052100F0010019
:10427000019001981C20FEF71BFC1C2002B0BDE839
:104280008040FEF703BC000070470000006842F663
:104290000041C4F20101884218BF7047FEF774BBA9
:1042A0007047000070470000704700007047000032
:1042B00070B5016840F62F03CA690E688C68134018
:1042C000202B06F0200E07D1BEF1000F04D0416E66
:1042D00041B3BDE87040084740F60F031A4209D0C9
:1042E00040F22013C0F2004304F0010C334013EB02
:1042F0000C0325D1036ED50616D5012B14D116F06B
:10430000100311D010220A628968490630D4B0F82F
:104310005810B0F85A20B0F85A30002B18BF91420C
:1043200040F02E8270BD00BFD30213D514F4800379
:1043300010D04FF480120A62BDE87040FFF7B4BF9E
:10434000D30718BF16F4807340F0CC80930700F1B8
:10435000D380DCE0110640F1D98116F0800100F035
:10436000D581816E0029DDD0BDE87040084700BFCF
:10437000016F0A6853689CB2002CD3D0B0F8581073
:104380008C42CFD2A0F85A301268920600F1A28077
:10439000016851E8001F026821F4807142E80013AF
:1043A000DBB1016851E8001F026821F4807142E826
:1043B000001393B1016851E8001F026821F4807175
:1043C00042E800134BB1016851E8001F026821F474
:1043D000807142E80013002BDAD1016851E8021F16
:1043E000026821F0010142E80213C3B3016851E8F9
:1043F000021F026821F0010142E802137BB3016849
:1044000051E8021F026821F0010142E8021333B3B0
:10441000016851E8021F026821F0010142E802131D
:10442000002BDAD11BE000BF016851E8021F0268CF
:1044300021F0400142E80213DBB1016851E8021F9C
:10444000026821F0400142E8021393B1016851E88B
:10445000021F026821F0400142E802134BB10168DB
:1044600051E8021F026821F0400142E80213002BCC
:10447000DAD12021C16700210166016851E8001FDF
:10448000026821F0100142E80013DBB1016851E835
:10449000001F026821F0100142E8001393B1016887
:1044A00051E8001F026821F0100142E800134BB1EF
:1044B000016851E8001F026821F0100142E8001372
:1044C000002BDAD1016F04460846FDF769FBB4F80A
:1044D00058102046B0F85A20891A89B2BDE87040B9
:1044E000FFF7E0BE01230B62D0F8803043F00103F8
:1044F000C0F8803093070AD5BCF1000F07D0022323
:104500000B62D0F8803043F00403C0F880305307CA
:104510000AD5BCF1000F07D004230B62D0F880301D
:1045200043F00203C0F8803013070AD55CEA0E039B
:1045300007D008230B62D0F8803043F00803C0F89E
:10454000803013050BD516F0806308D04FF400635C
:104550000B62D0F8803043F02003C0F88030D0F8F0
:104560008030002B3FF4DEAE920608D5BEF1000F7E
:1045700005D0426E1AB10446904721682046D0F813
:104580008020896802F0280201F04001891807D1D3
:104590000446FFF78BFE0020C4F8800070BD00BF0A
:1045A000016851E8001F026821F4907142E800138D
:1045B000BBB3016851E8001F026821F4907142E822
:1045C000001373B3016851E8001F026821F4907171
:1045D00042E800132BB3016851E8001F026821F480
:1045E000907142E80013002BDAD11AE0016851E81B
:1045F000021F026821F0010142E80213DBB10168E9
:1046000051E8021F026821F0010142E8021393B150
:10461000016851E8021F026821F0010142E802131B
:104620004BB1016851E8021F026821F0010142E824
:104630000213002BDAD1016E012924D1016851E85F
:10464000001F026821F0100142E80013DBB101688D
:1046500051E8001F026821F0100142E8001393B1F5
:10466000016851E8001F026821F0100142E80013C0
:104670004BB1016851E8001F026821F0100142E8C7
:104680000013002BDAD12021C167002101660268E6
:104690004166916849066FD5016851E8021F0268BA
:1046A00021F0400142E80213DBB1016851E8021F2A
:1046B000026821F0400142E8021393B1016851E819
:1046C000021F026821F0400142E802134BB1016869
:1046D00051E8021F026821F0400142E80213002B5A
:1046E000DAD1016F002947D046F28912C0F60002E4
:1046F000044608468A63FDF779FA00283FF412AEB3
:10470000206F816BBDE87040084700BF51067FF500
:1047100009AE16F0400108BF70BD00BF016851E846
:10472000001F026821F0400142E80013DBB101687C
:1047300051E8001F026821F0400142E8001393B1E4
:10474000016851E8001F026821F0400142E80013AF
:104750004BB1016851E8001F026821F0400142E8B6
:104760000013002BDAD12021816700218166BDE88A
:10477000704000F05FBA00BFBDE87040FFF796BD23
:10478000891A00BF026852E8002F036822F4907271
:1047900043E80026BEB3026852E8002F036822F403
:1047A000907243E8002676B3026852E8002F03684F
:1047B00022F4907243E800262EB3026852E8002FDC
:1047C000036822F4907243E80026002EDAD11AE042
:1047D000026852E8022F036822F0010243E8022631
:1047E000DEB1026852E8022F036822F0010243E8BA
:1047F000022696B1026852E8022F036822F00102F5
:1048000043E802264EB1026852E8022F036822F004
:10481000010243E80226002EDAD12022C2670022DC
:1048200002664266026852E8002F036822F0100216
:1048300043E80026DEB1026852E8002F036822F048
:10484000100243E8002696B1026852E8002F036880
:1048500022F0100243E800264EB1026852E8002F11
:10486000036822F0100243E80026002EDAD189B254
:10487000BDE87040FFF716BD002804BF0120704757
:10488000B0B582B00446806F28B9002084F8740067
:10489000204600F059F82420A0672068016821F024
:1048A00001010160204601F077FC18B1012002B03F
:1048B000B0BD00BF606A10B1204601F0F1FB206876
:1048C000416821F490414160816821F02A018160B2
:1048D000016841F0010101600020C4F88000FDF78B
:1048E000B9FA216805460A68120710D56FF07E4CA8
:1048F00020464FF4001100222B46CDF800C001F0F5
:104900004BFD18B1032002B0B0BD00BF216808689C
:1049100040070FD56FF07E4C20464FF480010022F7
:104920002B46CDF800C001F037FD18B1032002B0CE
:10493000B0BD00BF2020A067E0670020206684F89B
:10494000740002B0B0BD0000F0B59BB0044600207A
:104950001A90CDE91800CDE9160001A85421FBF703
:10496000DCFF206844F20041C4F20001884237D0E5
:1049700043F60001C4F20101884271D10120019087
:1049800001A8FEF733F9002818BFFCF70DFE41F22D
:104990004C00C4F20200416941F480414161416927
:1049A00001F4804100910099016841F00201016029
:1049B000006816A900F0020000900098C020169030
:1049C00002201790002018900320199007201A90B9
:1049D00040F20040C4F60000FDF754F91BB0F0BDF2
:1049E000022501A80195FEF701F9002818BFFCF780
:1049F000DBFD41F24C00C4F20200C16816AC41F488
:104A00000031C160C168002601F4003100910099B5
:104A10000168032741F0010101600068214600F0B0
:104A20000100009000980420CDE9160507201A9097
:104A30004FF0904018961997FDF724F94FF4004075
:104A400016A9E1C14FF0904021461A97FDF71AF9D7
:104A5000262005210022FEF72BF82620FEF716F867
:104A60001BB0F0BD2DE9F04381B00546C06F202892
:104A70000ED10E4600294FF0010018BF002A03D1C5
:104A800001B0BDE8F08300BF95F87400012803D1A0
:104A9000022001B0BDE8F083012085F874000020F9
:104AA00022211C46C5F88000E96728661746FDF7F5
:104AB000D1F9A5F85870A5F85A70A9688046C9B10F
:104AC000B1F1805F12D0B1F5805F17D12869FF275F
:104AD000014600281CBF31460026002808BF40F2CE
:104AE000FF17A5F85C70B1460E460EE0286918B1B4
:104AF0003F2706E0286918B17F2702E0002700E081
:104B0000FF274FF00009A5F85C70002085F87400BD
:104B1000B5F85A00E0B100BF2846202100224346E4
:104B2000009401F039FCC8B92868002E808C00EA96
:104B3000070012BF06F8010B29F8020B0026B5F892
:104B40005A000138A5F85A00B5F85A000028E3D1F8
:104B50002020E867002001B0BDE8F083032001B009
:104B6000BDE8F0832DE9F04182B00446806F202833
:104B70000ED10F4600294FF0010018BF002A03D1C3
:104B800002B0BDE8F08100BF94F87400012803D1A1
:104B9000022002B0BDE8F081012084F874000020FA
:104BA000C4F8800021201D46A0671646FDF752F983
:104BB000A4F85060A4F85260A1688046B1F5805F07
:104BC00001D12069A0B33E460027002084F874007C
:104BD00008E000BF16F8011B0185B4F85200013847
:104BE000A4F85200B4F8520080B12046802100227F
:104BF0004346009501F0D0FB80B92068002EE9D132
:104C000037F8021B00266FF35F21E5E720464021BD
:104C100000224346009501F0BFFB18B1032002B00B
:104C2000BDE8F0812020A067002002B0BDE8F0813F
:104C30000026CAE7704700002DE9F04192B040F22B
:104C40007008C2F2000898F8083098F809700DF161
:104C500006040FF25C52204630210097FBF7A8FBB8
:104C60002046FBF7EEFD82B240F2A030C2F2000017
:104C700021464FF0FF334FF0FF36FFF773FF8C20D4
:104C800040F230248DF836008820C2F200048DF8FE
:104C900047000DF1360220464E2101230096FDF714
:104CA0005DFA0120FCF7CCFF0DF1470220464E21B2
:104CB00001230096FDF752FA0120FCF7C1FF0C27F3
:104CC00008250DF1360220464E2101238DF836705D
:104CD0008DF847500096FDF741FA0120FCF7B0FF30
:104CE0000DF1470220464E2101230096FDF736FACA
:104CF0000120FCF7A5FF48F62A320DF13604C0F674
:104D000000020FF2CC4320461121FBF751FB9DF826
:104D1000360048B1013C00BFC0B2012100F04CFE9A
:104D2000A07801340028F7D1CC2040F230248DF84F
:104D30003600C820C2F200048DF847000DF136029B
:104D400020464E2101230096FDF708FA0120FCF7CA
:104D500077FF0DF1470220464E2101230096FDF713
:104D6000FDF90120FCF76CFF0DF1360220464E21C3
:104D700001238DF836708DF847500096FDF7EEF957
:104D80000120FCF75DFF0DF1470220464E21012373
:104D90000096FDF7E3F90120FCF752FF48F62A32AE
:104DA0000DF13604C0F600020FF234432046112103
:104DB000FBF7FEFA9DF8360040B1013CC0B201217C
:104DC00000F0FAFDA07801340028F7D14FF09040B0
:104DD00010210122FDF738F84FF0904010210122F8
:104DE000FDF732F8FDF736F8044647F22F5500BFBD
:104DF000FDF730F8001BA84200F2F6804FF090401B
:104E00004FF48071FDF71AF80028F1D140F2D0205C
:104E1000C2F200000068002181634FF09040102131
:104E20000022FDF711F84FF0904010210022FDF70D
:104E30000BF898F8083098F809700DF10604ECA208
:104E4000204630210097FBF7B3FA2046FBF7F9FC28
:104E500082B240F2A030C2F2000021464FF0FF3390
:104E60004FF0FF36FFF77EFE8C2040F230248DF8A5
:104E700036008820C2F200048DF847000DF136029A
:104E800020464E2101230096FDF768F90120FCF72A
:104E9000D7FE0DF1470220464E2101230096FDF773
:104EA0005DF90120FCF7CCFE0C2708250DF1360238
:104EB00020464E2101238DF836708DF8475000961C
:104EC000FDF74CF90120FCF7BBFE0DF1470220462F
:104ED0004E2101230096FDF741F90120FCF7B0FEB9
:104EE00048F62A320DF13604C0F60002C7A3204668
:104EF0001121FBF75DFA9DF8360048B1013C00BF77
:104F0000C0B2012100F058FDA07801340028F7D18B
:104F1000CC2040F230248DF83600C820C2F20004C4
:104F20008DF847000DF1360220464E2101230096F0
:104F3000FDF714F90120FCF783FE0DF1470220462E
:104F40004E2101230096FDF709F90120FCF778FEB8
:104F50000DF1360220464E2101238DF836708DF872
:104F600047500096FDF7FAF80120FCF769FE0DF1B5
:104F7000470220464E2101230096FDF7EFF801205D
:104F8000FCF75EFE48F62A320DF13604C0F6000248
:104F9000A1A320461121FBF70BFA9DF8360048B17A
:104FA000013C00BFC0B2012100F006FDA078013431
:104FB0000028F7D140F6B830FCF742FE4FF09040A1
:104FC0004FF48071FCF73AFF0028F7D040F2A03090
:104FD00048F66021C2F20000C0F6000124224FF022
:104FE000FF33FFF7BFFDDBE040F2D020C2F200004C
:104FF0000068002181634FF0904010210022FCF7EF
:1050000023FF4FF0904010210022FCF71DFF98F87D
:10501000083098F8097048F6F3220DF10604C0F63E
:105020000002204630210097FBF7C2F92046FBF72B
:1050300008FC82B240F2A030C2F2000021464FF0DC
:10504000FF334FF0FF36FFF78DFD8C2040F2302408
:105050008DF836008820C2F200048DF847000DF16B
:10506000360220464E2101230096FDF777F80120F5
:10507000FCF7E6FD0DF1470220464E210123009684
:10508000FDF76CF80120FCF7DBFD0C2708250DF17E
:10509000360220464E2101238DF836708DF8475098
:1050A0000096FDF75BF80120FCF7CAFD0DF1470201
:1050B00020464E2101230096FDF750F80120FCF711
:1050C000BFFD48F62A320DF13604C0F6000256A3A1
:1050D00020461121FBF76CF99DF8360040B1013CE8
:1050E000C0B2012100F068FCA07801340028F7D19B
:1050F000CC2040F230248DF83600C820C2F20004E3
:105100008DF847000DF1360220464E21012300960E
:10511000FDF724F80120FCF793FD0DF1470220462E
:105120004E2101230096FDF719F80120FCF788FDB8
:105130000DF1360220464E2101238DF836708DF890
:1051400047500096FDF70AF80120FCF779FD0DF1B4
:10515000470220464E2101230096FCF7FFFF012065
:10516000FCF76EFD48F62A3248F62F330DF136046F
:10517000C0F60002C0F6000320461121FBF718F923
:105180009DF8360040B1013CC0B2012100F014FC92
:10519000A07801340028F7D140F6B830FCF750FD74
:1051A000FBF736FF012088F8020012B0BDE8F0815D
:1051B000414C41524D3A20446F736520647565201F
:1051C000617420253032643A253032640D0A0000C3
:1051D0002A2A20444F534520445545202A2A0000BE
:1051E000536C6964652073776974636821000000FB
:1051F000446F73652054414B454E20617420253027
:1052000032643A253032640D0A000000446F736541
:105210002074616B656E2100536C69646520626166
:10522000636B204849474800446F7365204D4953DC
:105230005345442100000000FEE700002DE9F04343
:1052400081B0036804469869C00605D40020002197
:105250009A69D70560D465E01020D8619869800606
:1052600053D48846481C46D016464FF020090025E6
:1052700006E000BF0027986900F02000384335D1D0
:10528000FCF7E8FD2368B8F1000F02D0801B404511
:10529000F0D9596894F842009A6912040CD511F4B7
:1052A000804109D1202807D0586840F480405860D8
:1052B000FCF7D0FD236806469869002702E000BF8E
:1052C000236898698006D6D4FCF7C4FD801B1A2891
:1052D000F6D3606C012740F02000606484F84190B0
:1052E00084F8425084F84050EAE700BF7FB90CE0F0
:1052F0009869800609D49869800606D49869800662
:105300005CBF98695FEA8060F2D52020D8610121F6
:1053100004209A69D70505D54FF4807140F001004B
:10532000D9610121570507D492050BD479B9002022
:1053300001B0BDE8F08300BF08304FF480619205F2
:10534000D96104D540F002004FF40071D961996928
:10535000890744BF002199629969C90703D19969F6
:1053600041F00101996159684EF60002CFF60062E2
:1053700011405960616C08436064202084F841004A
:10538000002084F8420084F84000012001B0BDE80C
:10539000F08300002DE9F04F8DB040F2A034C2F24E
:1053A00000043DA1204615224FF0FF33FFF7DAFB42
:1053B00040F2302648F60B3A4FF0000B0125C2F2BE
:1053C00000060FF2EC0801AF0FF20419C0F6000A54
:1053D00013E000BF2046494606224FF0FF33FFF797
:1053E000C1FB2046514602224FF0FF33FFF7BAFBC4
:1053F0000BF1010B0135802D24D0680081B23046BD
:1054000001220A23FCF7C8FD0028F3D138463021D9
:1054100042462B46FAF7CCFF3846FBF712FA82B227
:10542000204639464FF0FF33FFF79CFBE8B22728B0
:10543000D0D0682802D03F28CCD0D2E7204620A187
:105440000D22CAE75FEA0B6018D001AC5FFA8BF35C
:1054500021A220463021FAF7ABFF2046FBF7F1F9F5
:1054600082B240F2A030C2F2000021464FF0FF337A
:10547000FFF778FB0DB000F047B800BF40F2A03056
:10548000C2F200001AA115224FF0FF33FFF76AFBAA
:105490000DB000F039B800BF5363616E6E696E677E
:1054A00020493243206275732E2E2E0D0A00000013
:1054B0002020466F756E643A2030782530325800CF
:1054C0002028445333323331205254432900000002
:1054D00020284C43442900002020546F74616C3A0A
:1054E000202564206465766963652873290D0A00A8
:1054F00020204E6F206465766963657320666F7542
:105500006E64210D0A00000030BCBDE8C08F0000B1
:105510002DE9F04106460068144682690D461140A7
:10552000491BB1FA81F149098C4248D11F461BB38E
:10553000791C33D181692940491BB1FA81F14909AC
:105540008C423CD181692940491BB1FA81F149095A
:105550008C4234D181692940491BB1FA81F1490952
:105560008C422CD181692940491BB1FA81F149094A
:105570008C42DFD023E000BFFCF76CFC706C40F085
:1055800020007064202086F84100002086F8420048
:1055900086F840000120BDE8F08100BFDDF81880EA
:1055A000FCF758FCA0EB0800B842E7D830688069E7
:1055B0002840401BB0FA80F040098442F0D000201F
:1055C000BDE8F08170B51546044689B10E4600BFAE
:1055D00020688069800619D4204631462A46FFF7A4
:1055E0002DFE88B9FCF736FC401BB042F0D911E023
:1055F00020688069800644BF002070BD20460021DD
:105600002A46FFF71BFE18B1012070BD002070BDB7
:10561000FCF720FC606C40F020006064202084F8DF
:105620004100002084F8420084F84000012070BD51
:1056300070B5044600688069800710D415460E4690
:1056400011B3701C17D100BF20464FF0FF312A461E
:10565000FFF7F4FDF0B9206880698007F4D50020D9
:1056600070BD00BFFCF7F6FB401BB04216D82068A7
:1056700080698007F3D4204631462A46FFF7DEFDD5
:105680000028EFD006E000BF204600212A46FFF7A1
:10569000D5FD08B1012070BDFCF7DCFB606C40F06B
:1056A00020006064202084F84100002084F842003B
:1056B00084F84000012070BDF0B583B03220FCF7C3
:1056C000BFFA40F23024C2F200043C2638274FF0E3
:1056D000FF350DF10B0220464E2101238DF80B60A2
:1056E0008DF80A700095FCF739FD0120FCF7A8FA47
:1056F0000DF10A0220464E2101230095FCF72EFDF4
:105700000120FCF79DFA0520FCF79AFA0DF10B0237
:1057100020464E2101238DF80B608DF80A7000950C
:10572000FCF71CFD0120FCF78BFA0DF10A02204664
:105730004E2101230095FCF711FD0120FCF780FAB2
:105740000520FCF77DFA0DF10B0220464E210123C6
:105750008DF80B608DF80A700095FCF7FFFC0120B6
:10576000FCF76EFA0DF10A0220464E210123009546
:10577000FCF7F4FC0120FCF763FA0120FCF760FA67
:105780002C2628270DF10B0220464E2101238DF8EF
:105790000B608DF80A700095FCF7E0FC0120FCF727
:1057A0004FFA0DF10A0220464E2101230095FCF725
:1057B000D5FC0120FCF744FA0120FCF741FA0DF179
:1057C0000B0220464E2101238DF80B608DF80A70E4
:1057D0000095FCF7C3FC0120FCF732FA0DF10A0238
:1057E00020464E2101230095FCF7B8FC0120FCF770
:1057F00027FA8C208DF80B0088208DF80A000DF117
:105800000B0220464E2101230095FCF7A7FC012046
:10581000FCF716FA0DF10A0220464E2101230095ED
:10582000FCF79CFC0120FCF70BFA0120FCF708FABE
:105830000C2608270DF10B0220464E2101238DF87E
:105840000B608DF80A700095FCF788FC0120FCF7CE
:10585000F7F90DF10A0220464E2101230095FCF7CD
:105860007DFC0120FCF7ECF9CC208DF80B00C82062
:105870008DF80A000DF10B0220464E210123009500
:10588000FCF76CFC0120FCF7DBF90DF10A02204665
:105890004E2101230095FCF761FC0120FCF7D0F9B3
:1058A0000120FCF7CDF90DF10B0220464E2101231A
:1058B0008DF80B608DF80A700095FCF74FFC012005
:1058C000FCF7BEF90DF10A0220464E210123009596
:1058D000FCF744FC0120FCF7B3F91C208DF80B0009
:1058E00018208DF80A000DF10B0220464E210123ED
:1058F0000095FCF733FC0120FCF7A2F90DF10A0238
:1059000020464E2101230095FCF728FC0120FCF7DE
:1059100097F90220FCF794F90DF10B0220464E2175
:1059200001238DF80B608DF80A700095FCF716FCCA
:105930000120FCF785F90DF10A0220464E210123D2
:105940000095FCF70BFC0120FCF77AF96C208DF830
:105950000B0068208DF80A000DF10B0220464E2145
:1059600001230095FCF7FAFB0120FCF769F90DF122
:105970000A0220464E2101230095FCF7EFFB01208F
:10598000FCF75EF90120FCF75BF940F2A030C2F2AF
:10599000000004A112224FF0FF33FFF7E3F803B039
:1059A000F0BD00BF4C434420696E697469616C6945
:1059B0007A65642E0D0A0000F0B583B0064600F04B
:1059C000F00008430D4640F00C0100F0F30040F2F7
:1059D00030240830C2F200048DF809108DF8080058
:1059E0004FF0FF370DF1090220464E2101230097A9
:1059F000FCF7B4FB0120FCF723F902AA20464E2154
:105A000001230097FCF7AAFB0120FCF719F945EAEE
:105A1000061040F00C0100F0F30008308DF80B1078
:105A20008DF80A000DF10B0220464E21012300974C
:105A3000FCF794FB0120FCF703F90DF10A02204664
:105A40004E2101230097FCF789FB0120FCF7F8F8B1
:105A500003B0F0BDFEE70000FEE70000000000001C
:105A6000EFF30980BFF36F8F154B1A681EF0100F0C
:105A700008BF20ED108A20E9F04F10602DE90900E1
:105A80004FF0500080F31188BFF34F8FBFF36F8F3B
:105A900002F084F84FF0000080F31188BDE809009F
:105AA0001968086800F00EB81EF0100F08BF00F06B
:105AB0000EB880F30988BFF36F8F704700BF00BF37
:105AC000C400002030C8B0E8C04FFFF7EDBFB0EC15
:105AD000088AB0EC08CAFFF7ECBF0000F0B581B04F
